:020000040800F2
:1000000000000220B90F0008610E00086D0E000804
:10001000750E00087D0E0008850E00080000000027
:100020000000000000000000000000008D0E00082D
:10003000990E000800000000A50E0008B10E00088F
:10004000091000080910000809100008091000082C
:10005000091000080910000809100008091000081C
:10006000091000080910000809100008091000080C
:1000700009100008091000080910000809100008FC
:10008000091000080910000809100008000000000D
:10009000000000000000000000000000091000083F
:1000A00009100008091000080910000809100008CC
:1000B00009100008091000080910000809100008BC
:1000C00009100008091000080910000809100008AC
:1000D00009100008F50C00080910000800000000D5
:1000E00009100008091000080910000800000000AD
:1000F00000000000000000000000000009100008DF
:10010000000000000910000809100008091000088C
:1001100000000000000000000000000000000000DF
:10012000091000080910000809100008091000084B
:10013000091000080000000000000000000000009E
:10014000000000000000000000000000091000088E
:10015000091000080910000809100008091000081B
:10016000091000080910000800000000000000004D
:10017000000000000000000000000000000000007F
:10018000000000000910000800000000000000004E
:08019000091000080910000825
:1001A00010B5054C237833B9044B13B10448AFF3B1
:1001B00000800123237010BD7800002000000000A3
:1001C000C8180008084B10B51BB108490848AFF320
:1001D00000800848036803B910BD074B002BFBD013
:1001E000BDE81040184700BF000000007C00002060
:1001F000C81800087800002000000000000000007F
:1002000001F0FF01102A2BDB10F0070F08D010F8C7
:10021000013B013A8B422DD010F0070F42B3F6D1CB
:10022000F0B441EA012141EA014122F007047FF0E4
:1002300000070023F0E80256083C85EA010586EA3B
:10024000010685FA47F5A3FA87F586FA47F6A5FA77
:1002500087F68EB9EED1F0BC01F0FF0102F0070283
:1002600032B110F8013B013A83EA010313B1F8D12E
:100270000020704701387047002D06BF354603380F
:10028000073815F0010F07D1013015F4807F02BF48
:10029000013015F4C03F0130F0BC0138704700BF99
:1002A00080B485B000AF78600023FB730023BB737C
:1002B0000F237B737B68DB78002B38D0264BDB6801
:1002C000DB4303F4E0631B0AFB73FB7BC3F1040312
:1002D000BB737A7BFB7B42FA03F37B737B685B78AF
:1002E0001A46BB7B02FA03F3FB737B689A787B7B2D
:1002F0001340DAB2FB7B1343FB73FB7B1B01FB73E5
:10030000164A7B681B781344FA7B83F80023134A50
:100310007B681B785B09DBB218467B681B7803F0AF
:100320001F03012101FA03F342F820300FE00B49CB
:100330007B681B785B09DBB218467B681B7803F08F
:100340001F0301229A4000F1200341F8232000BF3F
:100350001437BD4680BC704700ED00E000E100E0CE
:1003600080B483B000AF78607B68042B06D1094A63
:10037000084B1B6843F00403136005E0054A054B76
:100380001B6823F00403136000BF0C37BD4680BC1C
:10039000704700BF10E000E080B487B000AF786025
:1003A000396000237B6100233B610023FB60002355
:1003B0007B6176E001227B6902FA03F33B613B68D3
:1003C0001A683B691340FB60FA683B699A4265D141
:1003D0007B681A687B695B00032101FA03F3DB4346
:1003E0001A407B681A607B681A683B681B7919465B
:1003F0007B695B0001FA03F31A437B681A603B6870
:100400001B79012B03D03B681B79022B2ED17B6813
:100410009A687B695B00032101FA03F3DB431A400E
:100420007B689A607B689A683B685B7919467B6950
:100430005B0001FA03F31A437B689A607B685A6891
:100440007B699BB2194601238B40DB431A407B68D2
:100450005A607B685B683A68927911467A6992B211
:1004600001FA02F292B21A437B685A607B68DA683A
:100470007B699BB25B00032101FA03F3DB431A4063
:100480007B68DA607B68DA683B68DB7919467B69F0
:100490005B0001FA03F31A437B68DA607B6901337E
:1004A0007B617B690F2B85D900BF1C37BD4680BCA3
:1004B000704700BF80B483B000AF78600B467B808C
:1004C0007B687A881A8300BF0C37BD4680BC7047B2
:1004D00080B483B000AF78600B467B807B687A88FD
:1004E0005A8300BF0C37BD4680BC704780B485B0CE
:1004F00000AF78600B467B8013467B700023FB6067
:100500000023BB607A787B8803F007039B0002FA24
:1005100003F3FB607B88DB089BB218467B88DB0813
:100520009BB21A467B68083253F822207B8803F07E
:1005300007039B000F2101FA03F3DB4302EA0301E7
:100540007B6800F1080243F822107B88DB089BB22D
:100550001A467B68083253F82220FB681343BB60BD
:100560007B88DB089BB21A467B680832B96843F87F
:10057000221000BF1437BD4680BC704780B489B0DC
:1005800000AF78600023BB6100237B610023FB6127
:1005900002233B610023FB600223BB60484B9B6846
:1005A00003F00C03BB61BB69042B07D0082B09D0F7
:1005B000002B3FD17B68434A1A603FE07B68424A88
:1005C0001A603BE03E4B5B6803F480039B0DFB60CD
:1005D0003B4B5B6803F03F03BB60FB68002B0DD017
:1005E000394ABB68B2FBF3F2354B596847F6C07322
:1005F0000B409B0903FB02F3FB610CE0314ABB6833
:10060000B2FBF3F22E4B596847F6C0730B409B09BF
:1006100003FB02F3FB612A4B5B6803F440331B0CC2
:1006200001335B003B61FA693B69B2FBF3F27B6823
:100630001A6003E07B68234A1A6000BF204B9B6866
:1006400003F0F003BB61BB691B09BB611F4ABB69B7
:1006500013441B78DBB27B617B681A687B69DA40E4
:100660007B685A60164B9B6803F4E053BB61BB691F
:100670009B0ABB61154ABB6913441B78DBB27B61E3
:100680007B685A687B69DA407B689A600C4B9B6890
:1006900003F46043BB61BB695B0BBB610B4ABB6985
:1006A00013441B78DBB27B617B685A687B69DA4054
:1006B0007B68DA6000BF2437BD4680BC704700BF4E
:1006C000003802400024F40000127A0000000020EC
:1006D00080B483B000AF78600B46FB70FB78002BD2
:1006E00006D00949084B1A6B7B6813430B6306E07D
:1006F0000549054B1A6B7B68DB4313400B6300BF56
:100700000C37BD4680BC70470038024080B483B0CF
:1007100000AF78600B46FB70FB78002B06D00949D0
:10072000084B5A6C7B6813434B6406E00549054B44
:100730005A6C7B68DB4313404B6400BF0C37BD46EB
:1007400080BC70470038024080B58AB000AF786046
:10075000396000237B6200233B620023FB6100239E
:10076000BB617B681B8A9BB27B627B6A23F440532C
:100770007B623B68DB881A467B6A13437B627B6A39
:100780009AB27B681A827B689B899BB27B627B6A88
:1007900023F4B05323F00C037B623B689A883B68D8
:1007A0001B8913439AB23B685B8913439BB21A4679
:1007B0007B6A13437B627B6A9AB27B689A817B680F
:1007C0009B8A9BB27B627B6A23F440737B623B68AB
:1007D0009B891A467B6A13437B627B6A9AB27B6869
:1007E0009A8207F108031846FFF7C8FE7B68304A73
:1007F000934203D07B682F4A934202D17B693B62CC
:1008000001E03B693B627B689B899BB21BB2002B7A
:100810000CDA3A6A13469B0013449A001A443B6868
:100820001B685B00B2FBF3F3FB610BE03A6A134613
:100830009B0013449A001A443B681B689B00B2FB60
:10084000F3F3FB61FB691C4AA2FB03235B091B0159
:100850007B627B6A1B09642202FB03F3FA69D31AE9
:10086000BB617B689B899BB21BB2002B0CDABB6916
:10087000DB003233104AA2FB03235B0903F00703BA
:100880007A6A13437B620BE0BB691B0132330A4A6D
:10089000A2FB03235B0903F00F037A6A13437B6215
:1008A0007B6A9AB27B681A8100BF2837BD4680BD3B
:1008B00000100140001401401F85EB5180B483B04B
:1008C00000AF78600B46FB70FB78002B08D07B688C
:1008D0009B899BB243F400539AB27B689A8107E0EC
:1008E0007B689B899BB223F400539AB27B689A8100
:1008F00000BF0C37BD4680BC704700BF80B483B0DA
:1009000000AF78600B467B807B88C3F308039AB204
:100910007B689A8000BF0C37BD4680BC704700BF23
:1009200080B483B000AF78607B689B889BB2C3F3D0
:1009300008039BB218460C37BD4680BC704700BF09
:1009400080B487B000AF78600B467B8013467B7025
:1009500000233B610023FB600023BB6000237B611D
:100960007B687B617B88DBB25B09DBB23B617B88A8
:1009700003F01F03FB600122FB6802FA03F3BB6074
:100980003B69012B03D17B690C337B6109E03B6937
:10099000022B03D17B6910337B6102E07B69143346
:1009A0007B617B78002B06D07B697A691168BA6815
:1009B0000A431A6006E07B697A691168BA68D24313
:1009C0000A401A6000BF1C37BD4680BC704700BF9C
:1009D00080B485B000AF78600B467B800023FB734A
:1009E0007B681B889AB27B8813409BB2002B02D095
:1009F0000123FB7301E00023FB73FB7B18461437D4
:100A0000BD4680BC704700BF80B487B000AF78603F
:100A10000B467B800023FB6000237B610023BB60CF
:100A20000023FB747B88DBB25B09DBB2BB607B8895
:100A300003F01F037B6101227B6902FA03F37B61F0
:100A4000BB68012B07D17B689B899BB21A467B69E7
:100A500013407B6111E0BB68022B07D17B681B8AC6
:100A60009BB21A467B6913407B6106E07B689B8AD8
:100A70009BB21A467B6913407B617B881B0A9BB241
:100A8000FB600122FB6802FA03F3FB607B681B88B2
:100A90009BB21A46FB681340FB607B69002B05D0B4
:100AA000FB68002B02D00123FB7401E00023FB74E0
:100AB000FB7C18461C37BD4680BC704780B582B0B1
:100AC00000AF0346FB716FF00400FFF749FCFB79B0
:100AD000DB08DAB2084B1A70074B1B789BB21A4638
:100AE0005201D21A92001344DB009AB2034B1A80CF
:100AF00000BF0837BD4680BD94000020960000204E
:100B000080B485B000AF0346FB80154AFB881549C9
:100B1000098801FB03F35360114B00229A60104ACD
:100B20000F4B1B6843F0010313600D4B1B68FB6008
:100B3000FB6803F00103002B04D0FB6803F480334F
:100B4000002BF2D0064A064B1B6823F0010313600A
:100B5000034B00229A6000BF1437BD4680BC70472B
:100B600010E000E09600002080B584B000AF03469E
:100B7000FB80FB88134AA2FB03235B0A9BB2FB7337
:100B8000FB88104AA2FB0312520A4FF4077101FBC3
:100B900002F29B1ABB8106E04FF40770FFF7B0FF2B
:100BA000FB7B013BFB73FB7B002BF5D1BB89002B4F
:100BB00003D0BB891846FFF7A3FF00BF1037BD461F
:100BC00080BD00BF49D6B9F280B58AB000AF786069
:100BD00001210120FFF77CFD01211020FFF796FD88
:100BE000072209212448FFF781FC07220A21224815
:100BF000FFF77CFC4FF4C0633B62022387F824308C
:100C0000022387F82530002387F82630012387F850
:100C1000273007F1200319461748FFF7BDFB7B6813
:100C20003B610023BB820023FB8200233B83002324
:100C3000BB830C237B8307F1100319460F48FFF792
:100C400083FD01210D48FFF739FE012240F22551B5
:100C50000A48FFF775FE25233B7303237B730323A9
:100C6000BB730123FB7307F10C031846FFF718FB56
:100C700000BF2837BD4680BD000002400010014083
:100C800080B584B000AF786039600023FB7322E048
:100C900000BF40217868FFF79BFE0346002BF8D089
:100CA000FB7B3A6813441B78002B1BD0FB7B3A6814
:100CB00013441B789BB219467868FFF71FFEFB7B35
:100CC0003A6813441B789BB219460948FFF716FE91
:100CD000FB7B0133FB73FB7B3A6813441B78002BCF
:100CE000D6D100E000BF00BF1037BD4680BD00BFB9
:100CF0000010014080B582B000AF40F22551254878
:100D0000FFF782FE0346002B3FD02248FFF708FE84
:100D10000346FB71204B1B881BB2002B35DB1E4B9F
:100D20001B8803F48043002B10D0FB790A2B03D0DF
:100D3000194B00221A8028E0174B1B886FEA4343A7
:100D40006FEA53439AB2144B1A801EE0FB790D2BC5
:100D500007D1114B1B8843F480439AB20E4B1A8083
:100D600013E00D4B1B88C3F30D030C49FA79CA54E9
:100D7000094B1B8801339AB2074B1A80064B1B881C
:100D8000C72B02D9044B00221A8000BF0837BD468A
:100D900080BD00BF001001406001002098000020CD
:100DA00080B59CB000AF0023FB664FF4E130FFF745
:100DB0000BFF6420FFF782FE01210420FFF788FC6F
:100DC0004FF400537B66002387F86930012387F8CE
:100DD0006830002387F86A30002387F86B3007F10A
:100DE000640319461A48FFF7D7FA07F15403184667
:100DF000FFF7C4FB22E03B1D50220021184600F003
:100E00002BF97A6DBB6D381D124900F02DF93B1D91
:100E100019461148FFF734FF4FF400510C48FFF713
:100E200057FB4FF4FA70FFF79FFE4FF4005108484C
:100E3000FFF740FB4FF4FA70FFF796FE074B1B6875
:100E4000002BD8D1002318467037BD4680BD00BFA7
:100E500000080240E01800080010014010000020C7
:100E600080B400AF00BFBD4680BC704780B400AF07
:100E7000FEE700BF80B400AFFEE700BF80B400AF64
:100E8000FEE700BF80B400AFFEE700BF80B400AF54
:100E900000BFBD4680BC704780B400AF00BFBD46F8
:100EA00080BC704780B400AF00BFBD4680BC7047B7
:100EB00080B400AF00BFBD4680BC704780B500AFB6
:100EC000124A124B1B6843F0010313600F4B0022C0
:100ED0009A600E4A0D4B1B6823F0847323F4803311
:100EE00013600A4B0A4A5A60084A084B1B6823F4ED
:100EF00080231360054B0022DA6000F00DF8054BEB
:100F00004FF000629A6000BF80BD00BF0038024011
:100F10001030002400ED00E080B400AF224A224BE4
:100F20001B6C43F080531364204A204B1B6843F42E
:100F3000404313601C4A1C4B9B6893601A4A1A4B2F
:100F40009B689360184A184B9B6843F480539360E6
:100F5000154B174A5A60144A134B1B6843F08073B1
:100F6000136000BF104B1B6803F00073002BF9D017
:100F7000104B40F202721A600B4A0B4B9B6823F035
:100F800003039360084A084B9B6843F00203936095
:100F900000BF054B9B6803F00C03082BF9D100BF81
:100FA000BD4680BC704700BF003802400070004062
:100FB00010640107003C0240DFF834D0002103E058
:100FC0000C4B5B58435004310B480C4B42189A426F
:100FD000F6D30B4A02E0002342F8043B094B9A4245
:100FE000F9D3FFF76BFF00F011F8FFF7D9FE704758
:100FF00000000220381900080000002078000020BE
:101000007800002074010020FEE7000070B50E4B50
:101010000E4CE41AA41000251E46A54204D056F832
:10102000253098470135F8E700F04EFC084C094B95
:10103000E41AA41000251E46A54204D056F8253017
:1010400098470135F8E770BD3019000830190008DD
:10105000341900083019000802440346934202D0B4
:1010600003F8011BFAE770470EB400B59CB04FF4CB
:1010700002711DABADF81410029006906FF00041A4
:101080000A48049107914FF6FF7153F8042BADF80D
:1010900016100068019302A900F064F8029B002278
:1010A0001A701CB05DF804EB03B0704774000020A8
:1010B0002DE9F0478E689E4282460C46914698463E
:1010C0003ED88A8912F4906F3AD0256809696F1A60
:1010D0006569022305EB450595FBF3F57B1C43444D
:1010E0009D4238BF1D4653050FD5294600F03EFBF3
:1010F000064698B13A46216900F0C4FAA38923F460
:10110000906343F08003A38113E02A4600F08CFB38
:10111000064670B92169504600F0DAFA0C23CAF885
:101120000030A38943F04003A3814FF0FF30BDE8B6
:10113000F087266165613E44ED1B2660A56046464A
:10114000464528BF464632464946206800F0A5FA83
:10115000A3689B1BA36023681E4426600020BDE893
:10116000F08700002DE9F04F9DB0804603938B89F6
:101170001C060D4616460DD50B695BB9402100F0E3
:10118000F5FA2860286118B90C23C8F80030CDE0C2
:1011900040236B610023099320238DF82930DFF869
:1011A0009CB130238DF82A3037463C4614F8013B79
:1011B0001BB9B7EB060910D003E0252BF9D0274661
:1011C000F3E74B46324629464046FFF771FF0130B0
:1011D00000F0A780099B4B4409933B78002B00F05B
:1011E000A08000234FF0FF320493079305920693EB
:1011F0008DF853301A930126052221784E48FEF7C8
:10120000FFFF671C049B38B14B4A801A06FA00F0B6
:10121000184304903C46EFE7D90644BF20228DF8DE
:1012200053201A0744BF2B228DF8532022782A2AF4
:1012300003D0079A00210A200BE0039A111D1268BF
:101240000391002A10DA524243F002000792049000
:101250000BE0274601343B78303B092B03D800FBD9
:1012600002320121F5E701B107923B782E2B1ED106
:101270007B782A2B0AD1039B1A1D1B680392002B33
:10128000B8BF4FF0FF330237059310E000230593FA
:10129000781C19460A24074601303A78303A092A60
:1012A00003D804FB01210123F5E703B105910322D3
:1012B00039782248FEF7A4FF40B14023CBEB000071
:1012C00003FA00F0049B18430490013739781C4856
:1012D0008DF8281006227E1CFEF792FF88B1194B6C
:1012E00033B9039B073323F007030833039314E058
:1012F00003AB00932A46144B04A94046AFF3008089
:1013000007E003AB00932A460F4B04A9404600F0C8
:1013100093F8B0F1FF3F824603D0099B53440993F1
:1013200042E7AB895B0601D4099801E04FF0FF303A
:101330001DB0BDE8F08F00BFFD18000803190008BC
:101340000719000800000000B11000082DE9F0475F
:1013500091461F460A698B68DDF820809342B8BF2A
:101360001346C9F8003091F8432006460C4612B1E6
:101370000133C9F800302368990642BFD9F800301C
:101380000233C9F80030256815F0060510D104F1C4
:10139000190A07E00123524639463046C04701305A
:1013A0001AD00135E368D9F800209B1A9D42F1DB81
:1013B00094F843302268003318BF012392060FD5FA
:1013C000E1185A1C302081F84300224494F845105B
:1013D00082F84310023303E04FF0FF30BDE8F0879E
:1013E00004F1430239463046C0470130F4D0226848
:1013F000D9F80050E36802F00602042A08BF5D1B1A
:101400002269A3680CBF25EAE57500259342C4BF95
:101410009B1AED184FF000091A344D4509D00123ED
:10142000224639463046C0470130D5D009F101097E
:10143000F3E70020BDE8F0872DE9F04317460A7E68
:1014400085B06E2A984606460C460C9B01F1430E69
:1014500000F0AE8011D8632A22D009D8002A00F00B
:10146000BB80582A40F0CA8081F84520834955E066
:10147000642A1ED0692A1CD0C0E0732A00F0B08014
:1014800009D86F2A2ED0702A40F0B8800A6842F03E
:1014900020020A603EE0752A24D0782A3AD0ADE0D6
:1014A0001A6801F14205111D1960136884F8423071
:1014B000A8E021681A6811F0800F02D0111D196090
:1014C00008E011F0400F02F10401196002D0B2F9F6
:1014D000003000E01368002B3CDA2D225B4284F8D8
:1014E000432037E021681A6811F0800F02D0111DE7
:1014F000196007E011F0400F02F10401196001D0FA
:10150000138800E01368227E5C496F2A14BF0A2208
:1015100008221BE078225A4984F84520226818687E
:1015200012F0800F00F104051D6003D1550601D5AE
:10153000038800E00368D00744BF42F02002226025
:101540001BB9226822F0200222601022002084F8B9
:10155000430001E049490A226568A560002D08DBC7
:10156000206820F0040020602BB9002D7DD1754645
:101570000CE0002B79D07546B3FBF2F002FB103380
:10158000CB5C05F8013D03460028F5D1082A0BD1B4
:101590002368DA0708D5236962689A42DEBF3023E0
:1015A00005F8013C05F1FF35C5EB0E0323612EE084
:1015B00008681A68496910F0800F03D0101D186080
:1015C000136808E010F0400F02F10400186013687F
:1015D00001D0198000E0196000232361754616E0F0
:1015E0001A68111D19601568626800212846FEF707
:1015F00007FE08B1401B6060636804E004F1420527
:1016000084F8422001232361002384F84330CDF87D
:1016100000803B4603AA21463046FFF797FE013083
:1016200002D14FF0FF3026E023692A463946304682
:10163000C0470130F5D023689B0710D5002504F181
:10164000190907E001234A4639463046C0470130B0
:10165000E7D00135E368039A9B1A9D42F2DBE0680C
:10166000039B9842B8BF184605E00B7884F84230D7
:1016700004F142058AE705B0BDE8F0830E190008C1
:101680001F19000810B5431E0A44914204D011F8F6
:10169000014B03F8014FF8E710BD884210B501EB8C
:1016A000020301D8421E0BE09842FBD28118D21AE5
:1016B000D34204D013F8014D01F8014DF8E710BDF5
:1016C000994204D011F8014B02F8014FF8E710BD20
:1016D00038B50546002946D051F8043C0C1F002BB4
:1016E000B8BFE41800F0D6F81F4A1368114613B9C2
:1016F0006360146032E0A3420ED92268A0188342CE
:1017000004BF18685B68636004BF121822600C6035
:1017100024E0A24203D813465A68002AF9D1186877
:101720001918A1420BD1216801445818824219604E
:1017300014D1106852685A60014419600EE002D951
:101740000C232B600AE021686018824204BF1068F5
:101750005268626004BF091821605C602846BDE8D9
:10176000384000F098B838BD6801002070B5CD1C35
:1017700025F0030508350C2D38BF0C25002D064635
:1017800001DBA94202D90C23336046E000F082F865
:10179000234B1C681A462146A1B10B685B1B0ED473
:1017A0000B2B03D90B60CC18CD501EE08C420DBF23
:1017B00063684B686360136018BF0C4615E00C4605
:1017C0004968E9E7174C23681BB9304600F052F826
:1017D00020602946304600F04DF8431C18D0C41C48
:1017E00024F00304A0420DD12560304600F053F8E8
:1017F00004F10B00231D20F00700C31A0ED05A423B
:10180000E25070BD211A304600F034F80130EBD1BF
:101810000C233360304600F03EF8002070BD00BF5E
:101820006801002064010020F8B5074615460E4601
:1018300021B91146BDE8F840FFF798BF1AB9FFF784
:1018400047FF2846F8BD00F027F885420ED9294603
:101850003846FFF78BFF044650B131462A46FFF762
:1018600011FF31463846FFF733FF01E03046F8BD3F
:101870002046F8BD38B5064C0023054608462360CF
:1018800000F014F8431C02D1236803B12B6038BD6B
:10189000700100207047704751F8040C0028BEBF4B
:1018A000091851F8043CC01804387047044A054927
:1018B0001368002B08BF0B46184410601846704789
:1018C0006C01002078010020F8B500BFF8BC08BC0E
:1018D0009E467047F8B500BFF8BC08BC9E467047EE
:1018E000CFB5CDB3C6B5C2CA3A25640AB8DFCBD9E5
:1018F000D7DCCFDFC6B5C2CA3A25640A00232D3033
:101900002B2000686C4C0065666745464700303107
:101910003233343536373839414243444546003056
:101920003132333435363738396162636465660085
:04193000C5010008E5
:04193400A101000805
:10193800000000000102030401020304060708096D
:10194800010000000000000000000000000000008E
:10195800000000000000000000000000000000007F
:10196800000000000000000000000000000000006F
:10197800000000000000000000000000000000005F
:10198800000000000000000000000000000000004F
:10199800000000000000000000000000000000003F
:0819A800000000001400002003
:0400000508000FB927
:00000001FF
