:020000040800F2
:100000000050002061070008910500089D050008C8
:10001000A5050008AD050008B505000800000000B2
:10002000000000000000000000000000BD05000806
:10003000C905000800000000D5050008E10500081A
:10004000A9070008A9070008A9070008A9070008D0
:10005000A9070008A9070008A9070008A9070008C0
:10006000A9070008A9070008A9070008A9070008B0
:10007000A9070008A9070008A9070008A9070008A0
:10008000A9070008A9070008A9070008A907000890
:10009000A9070008A9070008A9070008A907000880
:1000A000A9070008A9070008A9070008A907000870
:1000B000A9070008A9070008A9070008A907000860
:1000C000A9070008A9070008A9070008A907000850
:1000D000A907000829040008A9070008A9070008C3
:1000E000A9070008A9070008A907000800000000E8
:1000F0000000000000000000000000000000000000
:0C01000000000000000000005FF808F1A3
:10010C0010B5054C237833B9044B13B10448AFF345
:10011C0000800123237010BD0400002000000000AB
:10012C00F8070008084B10B51BB108490848AFF395
:10013C0000800848036803B910BD074B002BFBD0A7
:10014C00BDE81040184700BF000000000800002068
:10015C00F8070008040000200000000080B489B0FB
:10016C0000AF786039600023FB6100233B61002302
:10017C00BB610023FB6000237B610023BB603B68F9
:10018C00DB7803F00F03FB613B68DB7803F01003B3
:10019C00002B05D03B689B781A46FB691343FB6127
:1001AC003B681B88DBB2002B44D07B681B687B61EF
:1001BC000023BB6138E00122BB6902FA03F3FB6048
:1001CC003B681B881A46FB6813403B613A69FB6825
:1001DC009A4226D1BB699B00FB600F22FB6802FA96
:1001EC0003F3BB60BB68DB437A6913407B61FA693C
:1001FC00FB6802FA03F37A6913437B613B68DB7893
:10020C00282B05D10122BB699A407B685A6108E012
:10021C003B68DB78482B04D10122BB699A407B6890
:10022C001A61BB690133BB61BB69072BC3D97B68FE
:10023C007A691A603B681B88FF2B46D97B685B6820
:10024C007B610023BB613AE0BB690833012202FAEF
:10025C0003F3FB603B681B881A46FB6813403B6149
:10026C003A69FB689A4227D1BB699B00FB600F225D
:10027C00FB6802FA03F3BB60BB68DB437A6913408B
:10028C007B61FA69FB6802FA03F37A6913437B61B9
:10029C003B68DB78282B05D1BB69083301229A40D7
:1002AC007B685A613B68DB78482B05D1BB69083306
:1002BC0001229A407B681A61BB690133BB61BB693F
:1002CC00072BC1D97B687A695A6000BF2437BD46B9
:1002DC0080BC704780B483B000AF78600B467B80E5
:1002EC007A887B681A6100BF0C37BD4680BC7047AA
:1002FC0080B483B000AF78600B467B807A887B68D3
:10030C005A6100BF0C37BD4680BC704780B483B0C7
:10031C0000AF78600B46FB70FB78002B06D00949C8
:10032C00084B9A697B6813438B6106E00549054BC2
:10033C009A697B68DB4313408B6100BF0C37BD4669
:10034C0080BC70470010024080B483B000AF78606E
:10035C007B689B889BB2C3F308039BB218460C378F
:10036C00BD4680BC704700BF80B487B000AF7860DA
:10037C000B467B800023FB6000237B610023BB606A
:10038C000023FB747B88DBB25B09DBB2BB607B8830
:10039C0003F01F037B6101227B6902FA03F37B618B
:1003AC00BB68012B07D17B689B899BB21A467B6982
:1003BC0013407B6111E0BB68022B07D17B681B8A61
:1003CC009BB21A467B6913407B6106E07B689B8A73
:1003DC009BB21A467B6913407B617B881B0A9BB2DC
:1003EC00FB600122FB6802FA03F3FB607B681B884D
:1003FC009BB21A46FB681340FB607B69002B05D04F
:10040C00FB68002B02D00123FB7401E00023FB747A
:10041C00FB7C18461C37BD4680BC704780B582B04B
:10042C0000AF40F225512548FFF79EFF0346002BF5
:10043C003FD02248FFF788FF0346FB71204B1B88F7
:10044C001BB2002B35DB1E4B1B8803F48043002BA7
:10045C0010D0FB790A2B03D0194B00221A8028E00C
:10046C00174B1B886FEA43436FEA53439AB2144B02
:10047C001A801EE0FB790D2B07D1114B1B8843F41E
:10048C0080439AB20E4B1A8013E00D4B1B88C3F3BA
:10049C000D030C49FA79CA54094B1B8801339AB2E3
:1004AC00074B1A80064B1B88C72B02D9044B002222
:1004BC001A8000BF0837BD4680BD00BF0038014020
:1004CC00E80000202000002080B485B000AF7860E8
:1004DC000023FB6002E0FB680133FB60FA687B6879
:1004EC009A42F8D300BF1437BD4680BC704700BF9A
:1004FC0080B582B000AF01214820FFF707FF202311
:10050C00BB801023FB710323BB713B1D194619489B
:10051C00FFF724FE20211748FFF7DCFE2023BB80C9
:10052C003B1D19461448FFF719FE20211248FFF70E
:10053C00D1FE15E020210F48FFF7DAFE20210E48EE
:10054C00FFF7C8FE0D48FFF7BFFF20210948FFF752
:10055C00C1FE20210848FFF7CBFE0848FFF7B4FF87
:10056C00074B1B68002BE5D1002318460837BD4606
:10057C0080BD00BF000C014000180140C0C62D001A
:10058C000000002080B400AF00BFBD4680BC7047A7
:10059C0080B400AFFEE700BF80B400AFFEE700BF41
:1005AC0080B400AFFEE700BF80B400AFFEE700BF31
:1005BC0080B400AF00BFBD4680BC704780B400AFB4
:1005CC0000BFBD4680BC704780B400AF00BFBD46C5
:1005DC0080BC704780B400AF00BFBD4680BC704784
:1005EC0080B500AF154A154B1B6843F0010313602F
:1005FC001249124B5A68124B13404B600F4A0F4B67
:10060C001B6823F0847323F4803313600B4A0B4B69
:10061C001B6823F480231360084A084B5B6823F49F
:10062C00FE035360054B4FF41F029A6000F00CF868
:10063C00044B4FF000629A6000BF80BD0010024076
:10064C000000FFF800ED00E080B500AF00F002F80C
:10065C0000BF80BD80B483B000AF00237B6000235B
:10066C003B603A4A394B1B6843F480331360374B79
:10067C001B6803F400333B607B6801337B603B6891
:10068C00002B03D17B68B3F5A06FF0D12F4B1B6807
:10069C0003F40033002B02D001233B6001E0002364
:1006AC003B603B68012B4BD1294A294B1B6843F01B
:1006BC0010031360264A264B1B6823F003031360B8
:1006CC00234A234B1B6843F0020313601F4A1F4B42
:1006DC005B6853601D4A1D4B5B6853601B4A1B4B88
:1006EC005B6843F480635360184A184B5B6823F4CF
:1006FC007C135360154A154B5B6843F4E813536045
:10070C00124A124B1B6843F08073136000BF0F4BEF
:10071C001B6803F00073002BF9D00C4A0B4B5B6881
:10072C0023F003035360094A084B5B6843F0020350
:10073C00536000BF054B5B6803F00C03082BF9D129
:10074C0000BF0C37BD4680BC704700BF0010024094
:10075C0000200240002103E00B4B5B584350043156
:10076C000A480B4B42189A42F6D30A4A02E000237D
:10077C0042F8043B084B9A42F9D3FFF731FF00F0E3
:10078C000FF8FFF7B5FE70471808000800000020AE
:10079C000400002004000020EC000020FEE7000014
:1007AC000E4B70B51E460E4C0025E41AA410A54243
:1007BC0004D056F8253098470135F8E700F016F8C4
:1007CC00084B094C1E46E41AA4100025A54204D07F
:1007DC0056F8253098470135F8E770BD1008000829
:1007EC00100800081008000814080008F8B500BF2D
:1007FC00F8BC08BC9E467047F8B500BFF8BC08BCF6
:04080C009E4670474D
:0408100031010008AA
:040814000D010008CA
:0408180001000000DB
:040000050800076187
:00000001FF
