:020000040800F2
:1000000000500020710D0008A5010008B101000892
:10001000B9010008C1010008C90100080000000082
:10002000000000000000000000000000D1010008F6
:10003000DD01000800000000E9010008F5010008EA
:10004000B90D0008B90D0008B90D0008B90D000878
:10005000B90D0008B90D0008B90D0008B90D000868
:10006000B90D0008B90D0008B90D0008B90D000858
:10007000B90D0008B90D0008B90D0008B90D000848
:10008000B90D0008B90D0008B90D0008B90D000838
:10009000B90D0008B90D0008B90D0008B90D000828
:1000A000B90D0008B90D0008B90D0008B90D000818
:1000B000B90D0008B90D0008B90D0008B90D000808
:1000C000B90D0008B90D0008B90D0008B90D0008F8
:1000D000B90D0008C50C0008B90D0008B90D0008DD
:1000E000B90D0008B90D0008B90D000800000000A6
:1000F0000000000000000000000000000000000000
:0C01000000000000000000005FF808F1A3
:10010C0010B5054C237833B9044B13B10448AFF345
:10011C0000800123237010BD1C0000200000000093
:10012C00080E0008084B10B51BB108490848AFF37E
:10013C0000800848036803B910BD074B002BFBD0A7
:10014C00BDE81040184700BF000000002000002050
:10015C00080E00081C0000200000000080B500AF55
:10016C004FF4E13000F056FD00F0C0FC07E0074909
:10017C00074800F015FD4FF47A7000F0DDFC054BDC
:10018C001B68002BF3D10023184680BD200E0008FD
:10019C00003801400000002080B400AF00BFBD4615
:1001AC0080BC704780B400AFFEE700BF80B400AFE6
:1001BC00FEE700BF80B400AFFEE700BF80B400AF25
:1001CC00FEE700BF80B400AF00BFBD4680BC7047E7
:1001DC0080B400AF00BFBD4680BC704780B400AF98
:1001EC0000BFBD4680BC704780B400AF00BFBD46A9
:1001FC0080BC704780B500AF154A154B1B6843F0A7
:10020C00010313601249124B5A68124B13404B6096
:10021C000F4A0F4B1B6823F0847323F48033136055
:10022C000B4A0B4B1B6823F480231360084A084BC2
:10023C005B6823F4FE035360054B4FF41F029A6076
:10024C0000F00CF8044B4FF000629A6000BF80BDC8
:10025C00001002400000FFF800ED00E080B500AF98
:10026C0000F002F800BF80BD80B483B000AF002363
:10027C007B6000233B603A4A394B1B6843F4803364
:10028C001360374B1B6803F400333B607B6801330E
:10029C007B603B68002B03D17B68B3F5A06FF0D17A
:1002AC002F4B1B6803F40033002B02D001233B605F
:1002BC0001E000233B603B68012B4BD1294A294BC1
:1002CC001B6843F010031360264A264B1B6823F06F
:1002DC0003031360234A234B1B6843F00203136090
:1002EC001F4A1F4B5B6853601D4A1D4B5B68536074
:1002FC001B4A1B4B5B6843F480635360184A184BD2
:10030C005B6823F47C135360154A154B5B6843F40C
:10031C00E8135360124A124B1B6843F0807313604E
:10032C0000BF0F4B1B6803F00073002BF9D00C4A75
:10033C000B4B5B6823F003035360094A084B5B6863
:10034C0043F00203536000BF054B5B6803F00C03E2
:10035C00082BF9D100BF0C37BD4680BC704700BFDD
:10036C00001002400020024080B487B000AF7860DB
:10037C0000237B6100233B610F23FB607B68DB78F0
:10038C00002B3AD0274BDB68DB4303F4E0631B0AFA
:10039C007B617B69C3F104033B61FA687B6922FAD8
:1003AC0003F3FB607B685B781A463B6902FA03F344
:1003BC007B617B689B781A46FB6813407A69134310
:1003CC007B617B691B017B61174A7B681B787969B0
:1003DC00C9B213440A4683F80023134A7B681B787E
:1003EC005B09DBB218467B681B7803F01F03012105
:1003FC0001FA03F342F820300FE00B497B681B78BD
:10040C005B09DBB218467B681B7803F01F030122E3
:10041C009A4000F1200341F8232000BF1C37BD4651
:10042C0080BC704700ED00E000E100E080B483B0D8
:10043C0000AF78607B68042B06D1094A084B1B6817
:10044C0043F00403136005E0054A054B1B6823F0D9
:10045C000403136000BF0C37BD4680BC704700BF5F
:10046C0010E000E080B489B000AF78603960002300
:10047C00FB6100233B610023BB610023FB60002375
:10048C007B610023BB603B68DB7803F00F03FB61EF
:10049C003B68DB7803F01003002B05D03B689B789E
:1004AC001A46FB691343FB613B681B88DBB2002BCC
:1004BC0044D07B681B687B610023BB6138E0012260
:1004CC00BB6902FA03F3FB603B681B881A46FB68A6
:1004DC0013403B613A69FB689A4226D1BB699B0089
:1004EC00FB600F22FB6802FA03F3BB60BB68DB43C3
:1004FC007A6913407B61FA69FB6802FA03F37A6943
:10050C0013437B613B68DB78282B05D10122BB6947
:10051C009A407B685A6108E03B68DB78482B04D131
:10052C000122BB699A407B681A61BB690133BB61CC
:10053C00BB69072BC3D97B687A691A603B681B8837
:10054C00FF2B46D97B685B687B610023BB613AE07B
:10055C00BB690833012202FA03F3FB603B681B887A
:10056C001A46FB6813403B613A69FB689A4227D1F3
:10057C00BB699B00FB600F22FB6802FA03F3BB60B4
:10058C00BB68DB437A6913407B61FA69FB6802FA4A
:10059C0003F37A6913437B613B68DB78282B05D125
:1005AC00BB69083301229A407B685A613B68DB784F
:1005BC00482B05D1BB69083301229A407B681A612C
:1005CC00BB690133BB61BB69072BC1D97B687A69F5
:1005DC005A6000BF2437BD4680BC704780B487B0DA
:1005EC0000AF786000237B6100233B610023FB603C
:1005FC000023BB604C4B5B6803F00C037B617B6995
:10060C00042B07D0082B09D0002B33D17B68474A29
:10061C001A6033E07B68454A1A602FE0424B5B68F6
:10062C0003F470133B61404B5B6803F48033FB6055
:10063C003B699B0C02333B61FB68002B06D13B6989
:10064C003B4A02FB03F27B681A6017E0364B5B688F
:10065C0003F40033002B06D03B69354A02FB03F24E
:10066C007B681A600AE03B69304A02FB03F27B6844
:10067C001A6003E07B682D4A1A6000BF2A4B5B6846
:10068C0003F0F0037B617B691B097B61294A7B6961
:10069C0013441B78DBB2BB607B681A68BB68DA401A
:1006AC007B685A60204B5B6803F4E0637B617B6979
:1006BC001B0A7B611F4A7B6913441B78DBB2BB604E
:1006CC007B685A68BB68DA407B689A60164B5B683B
:1006DC0003F460537B617B69DB0A7B61154A7B69A0
:1006EC0013441B78DBB2BB607B685A68BB68DA408A
:1006FC007B68DA600C4B5B6803F440437B617B697D
:10070C009B0B7B610C4A7B6913441B78DBB2BB608F
:10071C007B68DA68BB68B2FBF3F27B681A6100BFD6
:10072C001C37BD4680BC70470010024000127A0096
:10073C0000093D00080000201800002080B483B0A0
:10074C0000AF78600B46FB70FB78002B06D0094994
:10075C00084B9A697B6813438B6106E00549054B8E
:10076C009A697B68DB4313408B6100BF0C37BD4635
:10077C0080BC70470010024080B58CB000AF786030
:10078C0039600023FB620023BB6200237B620023E1
:10079C003B620023FB617B68FB617B681B8A9BB21D
:1007AC00FB62FA6A4CF6FF731340FB623B68DB8812
:1007BC001A46FB6A1343FB62FB6A9AB27B681A8285
:1007CC007B689B899BB2FB62FA6A4EF6F31313406B
:1007DC00FB623B689A883B681B8913439AB23B685F
:1007EC005B8913439BB21A46FB6A1343FB62FB6A99
:1007FC009AB27B689A817B689B8A9BB2FB62FA6A8D
:10080C004FF6FF431340FB623B689B891A46FB6A19
:10081C001343FB62FB6A9AB27B689A8207F1080366
:10082C001846FFF7DBFEFB692E4A934202D17B6927
:10083C00BB6201E03B69BB627B689B899BB21BB2CC
:10084C00002B0CDABA6A13469B0013449A001A4424
:10085C003B681B685B00B2FBF3F37B620BE0BA6A8C
:10086C0013469B0013449A001A443B681B689B0078
:10087C00B2FBF3F37B627B6A1B4AA2FB03235B098B
:10088C001B01FB62FB6A1B09642202FB03F37A6AFD
:10089C00D31A3B627B689B899BB21BB2002B0CDA90
:1008AC003B6ADB003233104AA2FB03235B0903F0E3
:1008BC000703FA6A1343FB620BE03B6A1B013233FA
:1008CC00094AA2FB03235B0903F00F03FA6A1343E3
:1008DC00FB62FB6A9AB27B681A8100BF3037BD4657
:1008EC0080BD00BF003801401F85EB5180B483B040
:1008FC0000AF78600B46FB70FB78002B08D07B6850
:10090C009B899BB243F400539AB27B689A8107E0AF
:10091C007B689B899BB223F400539AB27B689A81C3
:10092C0000BF0C37BD4680BC704700BF80B487B099
:10093C0000AF78600B467B8013467B7000233B61D5
:10094C000023FB600023BB6000237B617B687B6121
:10095C007B88DBB25B09DBB23B617B8803F01F0356
:10096C00FB600122FB6802FA03F3BB603B69012BBD
:10097C0003D17B690C337B6109E03B69022B03D10A
:10098C007B6910337B6102E07B6914337B617B787C
:10099C00002B06D07B697A691168BA680A431A6021
:1009AC0006E07B697A691168BA68D2430A401A601A
:1009BC0000BF1C37BD4680BC704700BF80B483B0FD
:1009CC0000AF78600B467B807B88C3F308039AB238
:1009DC007B689A8000BF0C37BD4680BC704700BF57
:1009EC0080B483B000AF78607B689B889BB2C3F304
:1009FC0008039BB218460C37BD4680BC704700BF3D
:100A0C0080B485B000AF78600B467B800023FB730D
:100A1C007B681B889AB27B8813409BB2002B02D058
:100A2C000123FB7301E00023FB73FB7B1846143797
:100A3C00BD4680BC704700BF80B487B000AF786003
:100A4C000B467B800023FB6000237B610023BB6093
:100A5C000023FB747B88DBB25B09DBB2BB607B8859
:100A6C0003F01F037B6101227B6902FA03F37B61B4
:100A7C00BB68012B07D17B689B899BB21A467B69AB
:100A8C0013407B6111E0BB68022B07D17B681B8A8A
:100A9C009BB21A467B6913407B6106E07B689B8A9C
:100AAC009BB21A467B6913407B617B881B0A9BB205
:100ABC00FB600122FB6802FA03F3FB607B681B8876
:100ACC009BB21A46FB681340FB607B69002B05D078
:100ADC00FB68002B02D00123FB7401E00023FB74A4
:100AEC00FB7C18461C37BD4680BC704780B500AFF8
:100AFC006FF00400FFF79AFC0B4B1B680B4AA2FB30
:100B0C0003235B0DDAB20A4B1A70094B1B789BB2AC
:100B1C001A465201D21A92001344DB009AB2054BCA
:100B2C001A8000BF80BD00BF0400002083DE1B4381
:100B3C00380000203A00002080B485B000AF034696
:100B4C00FB80154AFB881549098801FB03F35360A8
:100B5C00114B00229A60104A0F4B1B6843F00103A3
:100B6C0013600D4B1B68FB60FB6803F00103002B4B
:100B7C0004D0FB6803F48033002BF2D0064A064BFA
:100B8C001B6823F001031360034B00229A6000BF23
:100B9C001437BD4680BC704710E000E03A000020DE
:100BAC0080B584B000AF786039600023FB7322E01D
:100BBC0000BF40217868FFF723FF0346002BF8D0D5
:100BCC00FB7B3A6813441B78002B1BD0FB7B3A68E9
:100BDC0013441B789BB219467868FFF7EFFEFB7B3A
:100BEC003A6813441B789BB219460948FFF7E6FE96
:100BFC00FB7B0133FB73FB7B3A6813441B78002BA4
:100C0C00D6D100E000BF00BF1037BD4680BD00BF8D
:100C1C000038014080B588B000AF7860012144F203
:100C2C000400FFF78BFD4FF40073BB830323BB77EA
:100C3C001823FB7707F11C0319461D48FFF712FC1C
:100C4C004FF48063BB830423FB7707F11C03194625
:100C5C001748FFF707FC25233B7203237B72032302
:100C6C00BB720123FB7207F108031846FFF77CFBEC
:100C7C007B68FB6000233B8200237B820023BB82CA
:100C8C0000233B830C23FB8207F10C031946094814
:100C9C00FFF772FD012240F225510648FFF746FE90
:100CAC0001210448FFF722FE00BF2037BD4680BD5E
:100CBC00000801400038014080B582B000AF40F21E
:100CCC0025512548FFF7B8FE0346002B3FD022489C
:100CDC00FFF786FE0346FB71204B1B881BB2002BD3
:100CEC0035DB1E4B1B8803F48043002B10D0FB79A3
:100CFC000A2B03D0194B00221A8028E0174B1B88B3
:100D0C006FEA43436FEA53439AB2144B1A801EE0C6
:100D1C00FB790D2B07D1114B1B8843F480439AB2FE
:100D2C000E4B1A8013E00D4B1B88C3F30D030C49BB
:100D3C00FA79CA54094B1B8801339AB2074B1A80B3
:100D4C00064B1B88C72B02D9044B00221A8000BF0C
:100D5C000837BD4680BD00BF0038014004010020AB
:100D6C003C000020002103E00B4B5B584350043146
:100D7C000A480B4B42189A42F6D30A4A02E0002367
:100D8C0042F8043B084B9A42F9D3FFF733FA00F0D0
:100D9C000FF8FFF7E3F97047380E00080000002049
:100DAC001C0000201C00002008010020FEE70000B1
:100DBC000E4B70B51E460E4C0025E41AA410A5422D
:100DCC0004D056F8253098470135F8E700F016F8AE
:100DDC00084B094C1E46E41AA4100025A54204D069
:100DEC0056F8253098470135F8E770BD300E0008ED
:100DFC00300E0008300E0008340E0008F8B500BFA5
:100E0C00F8BC08BC9E467047F8B500BFF8BC08BCDF
:040E1C009E46704737
:100E200048656C6C6F20576F726C64210A0000007B
:040E30003101000884
:040E34000D010008A4
:100E38000100000000A24A040000000001020304AF
:0C0E480001020304060708090204060862
:0400000508000D7171
:00000001FF
